:020000020000FC
:0C0000000C94FF010C94AC010C94AD01B9
:02004800A5C150
:02004000CDC130
:1000600000E00093900002E002B9002708E90AB915
:10007000002706E00093950009E109B908955D9B0A
:10008000FECF2CB908955F9BFECF2CB10895FF9150
:10009000EF91EE0FFF1FAF93BF93C89531960020ED
:1000A00021F04AF0002D13D0F8CF3196F695E79560
:1000B000BF91AF91099400FA002DC895A02DBB27E0
:1000C0003196043879F0053881F015C0E6CF2F93CA
:1000D000FF93EF93E42DF52D202F0995EF91FF91DC
:1000E0002F9108950C91F3DFD8CF0D91002309F4DF
:1000F000D4CFEDDFFACF5F934F933F932F939F932E
:100100008F937F936F932D913D914D915D9106FD5E
:1001100006C005FD0FC004FD10C003FD19C06AE054
:10012000702F76957770729580E0902F92959370EE
:1001300093951AC062E094E003C060E194E000C0CF
:10014000702F7695777009F478E0729580E00CC096
:100150006AE0C895802D3196C895702D3196902F04
:1001600095959370939500C0943081F0933051F041
:10017000923021F0332716F427FD3FEF442716F481
:1001800037FD4FEF552716F447FD5FEF09D06F910C
:100190007F918F919F912F913F914F915F917DCF53
:1001A000CF92BF92AF929F928F92BB18AA249924AC
:1001B000882486F4E89455236AF46894772309F038
:1001C000705150954095309520950FEF201B300BC6
:1001D000400B500B882351F055954795379527953F
:1001E000B794A794979487948A95B1F77F93729563
:1001F0007F700EE20F9345D00C2D30D00F93002767
:10020000201730074007500729F07723A1F37A958C
:1002100091F707C0772329F07A9519F000E257DFAC
:10022000F9CF16F40DE253DF0F910E3211F04FDFCC
:10023000FBCF7F917F70772359F049DF282D392D2F
:100240004A2D5B2D11D00C2D09D041DF7A95D1F7C5
:100250008F909F90AF90BF90CF9008950A3010F488
:10026000005D0895095A0895CC2400E2889420FD89
:10027000C60EC79457954795379527950A95B1F7B8
:100280000895CC2400E2221F331F441F551FCC1CAD
:10029000C61A08F4C60E0A95B1F7221F331F441F71
:1002A000551F509540953095209508950A9500006A
:1002B0000000000000000000C9F70895C598BD982F
:1002C0000895BD9A00EFF2DFBD9803E2EFDF06B3B9
:1002D00005FB0DECEBDF0895BD9A0CE1E7DFBD985F
:1002E00002E0E4DF06B305FB01E0E0DF0895BD9A1C
:1002F00001E0DCDFBD980EE1D9DF06B305FB01E0CC
:10030000D5DF0895BD9A01E0D1DFBD9807E0CEDFCB
:1003100006B305FB07E1CADF08953F9338E0279550
:1003200010F4E5DF01C0D8DF3A95C9F73F91089591
:100330003F9338E02795E6DF27F93A95D9F73F91C3
:10034000089509E148E0279508F4302730FB3795F8
:1003500037F94A95C1F7089552C058ECDA9A09E086
:10036000302E02E03A94F1F73A940A95D9F7DA98E8
:1003700009E0302E02E03A94F1F73A940A95D9F761
:100380005A95503059F7C03021F49DD091E0C1E02A
:1003900050D0189578DE0FE3402E00E0502E77DE27
:1003A0000A0D61303DA01200253F11F48CD041D0E0
:1003B000243E19F460E070E080E0243F19F460E02E
:1003C00070E08CE0263E19F460E077E387E1233F9C
:1003D00019F467E37BE387E120E0189563956C33BC
:1003E00069F460E073957C3349F470E0839588315B
:1003F00029F480E068D090E01CD0AF9A18950FEFF8
:100400000DBF00E10EBF0FEF04BB00E001BBD29AAD
:1004100003E009BF53DF24DE01E007BF08E000BFAF
:1004200005E003BF60E090E0C0E0789400C0000009
:10043000FECF90FF0EC00FE3402E00E0502E27DECF
:100440000A0D2F215C205741524E494E47202F2143
:100450005C000FE3402E00E0502E19DE0A0D5265BD
:10046000706F72743A000FE3402E00E0502E0FDEE2
:100470000A0D74656D70657261747572653D8B12DD
:10048000044243200D000FE3402E00E0502EFFDD1C
:100490000A0D70756D702773207374617475733AEB
:1004A0000000C13041F00FE3402E00E0502EEFDDA0
:1004B0004F4E000007C00FE3402E00E0502EE7DD56
:1004C0004F4646000895FDDE2CEC27DF24E425DFAF
:1004D0000EEE302E03E00F933F9200E3302E06E045
:1004E0003A94F1F73A940A95D9F73F900F913A94DC
:1004F00091F70A9581F7E5DE2CEC0FDF2EEB0DDF8F
:0C05000017DF822E15DF322F282D089502
:00000001FF
